{
  "contractName": "DataStorage",
  "abi": [
    {
      "inputs": [
        {
          "internalType": "uint256",
          "name": "data",
          "type": "uint256"
        }
      ],
      "payable": false,
      "stateMutability": "nonpayable",
      "type": "constructor"
    },
    {
      "anonymous": false,
      "inputs": [
        {
          "indexed": false,
          "internalType": "address",
          "name": "initiator",
          "type": "address"
        },
        {
          "indexed": false,
          "internalType": "uint256",
          "name": "value",
          "type": "uint256"
        }
      ],
      "name": "StorageDataUpdate",
      "type": "event"
    },
    {
      "constant": true,
      "inputs": [],
      "name": "_owner",
      "outputs": [
        {
          "internalType": "address",
          "name": "",
          "type": "address"
        }
      ],
      "payable": false,
      "stateMutability": "view",
      "type": "function"
    },
    {
      "constant": true,
      "inputs": [],
      "name": "getData",
      "outputs": [
        {
          "internalType": "uint256",
          "name": "",
          "type": "uint256"
        }
      ],
      "payable": false,
      "stateMutability": "view",
      "type": "function"
    },
    {
      "constant": false,
      "inputs": [
        {
          "internalType": "uint256",
          "name": "data",
          "type": "uint256"
        }
      ],
      "name": "setData",
      "outputs": [],
      "payable": false,
      "stateMutability": "nonpayable",
      "type": "function"
    },
    {
      "constant": false,
      "inputs": [
        {
          "internalType": "uint256",
          "name": "data",
          "type": "uint256"
        }
      ],
      "name": "setDataWithCheck",
      "outputs": [],
      "payable": false,
      "stateMutability": "nonpayable",
      "type": "function"
    }
  ],
  "bytecode": "0x608060405234801561001057600080fd5b506040516103623803806103628339818101604052602081101561003357600080fd5b81019080805190602001909291905050508060008190555033600160006101000a81548173ffffffffffffffffffffffffffffffffffffffff021916908373ffffffffffffffffffffffffffffffffffffffff160217905550506102c68061009c6000396000f3fe608060405234801561001057600080fd5b506004361061004c5760003560e01c80633bc5de30146100515780635b4b73a91461006f578063b2bdfa7b1461009d578063caa9db29146100e7575b600080fd5b610059610115565b6040518082815260200191505060405180910390f35b61009b6004803603602081101561008557600080fd5b810190808035906020019092919050505061011e565b005b6100a5610128565b604051808273ffffffffffffffffffffffffffffffffffffffff1673ffffffffffffffffffffffffffffffffffffffff16815260200191505060405180910390f35b610113600480360360208110156100fd57600080fd5b810190808035906020019092919050505061014e565b005b60008054905090565b8060008190555050565b600160009054906101000a900473ffffffffffffffffffffffffffffffffffffffff1681565b600160009054906101000a900473ffffffffffffffffffffffffffffffffffffffff1673ffffffffffffffffffffffffffffffffffffffff163373ffffffffffffffffffffffffffffffffffffffff16146101f4576040517f08c379a000000000000000000000000000000000000000000000000000000000815260040180806020018281038252602881526020018061026a6028913960400191505060405180910390fd5b806000819055507f3a17c1c9f6fcaf9d990639e56c78e63136b058770b3c403e852c3b187fb692a53382604051808373ffffffffffffffffffffffffffffffffffffffff1673ffffffffffffffffffffffffffffffffffffffff1681526020018281526020019250505060405180910390a15056fe4f6e6c79206f776e65722063616e20696e6974696174652074686973207472616e73616374696f6ea265627a7a72315820b7b76471ceb048e09bb98ae631865bd8366202a079597bbfd3b73cc1e888c26c64736f6c63430005100032",
  "source": "pragma solidity >=0.4.0 <0.6.0;\n\ncontract DataStorage{\n    uint storageData;\n    address public _owner;\n    event StorageDataUpdate(address initiator, uint value);\n\n    constructor (uint data) public{\n        storageData = data;\n        _owner = msg.sender;\n    }\n\n    modifier onlyOwner(){\n        require(msg.sender == _owner, \"Only owner can initiate this transaction\");\n        _;\n    }\n\n    function getData() public view returns(uint){\n        return storageData;\n    }\n\n    function setData(uint data) public{\n        storageData = data;\n    }\n\n    function setDataWithCheck(uint data) public onlyOwner {\n        storageData = data;\n        emit StorageDataUpdate(msg.sender, data);\n    }\n}",
  "sourcePath": "/Users/saurav/workspace/hands-on/ethereum/demo-session/contracts/DataStorage.sol",
  "compiler": {
    "name": "solc",
    "version": "0.5.16+commit.9c3226ce.Emscripten.clang"
  },
  "schemaVersion": "3.0.22",
  "updatedAt": "2020-01-26T16:37:32.575Z",
  "devdoc": {
    "methods": {}
  },
  "userdoc": {
    "methods": {}
  }
}